{
  "_format": "hh-sol-artifact-1",
  "contractName": "TokenMaster",
  "sourceName": "contracts/TokenMaster.sol",
  "abi": [
    {
      "inputs": [
        {
          "internalType": "string",
          "name": "_name",
          "type": "string"
        },
        {
          "internalType": "string",
          "name": "_symbol",
          "type": "string"
        }
      ],
      "stateMutability": "nonpayable",
      "type": "constructor"
    },
    {
      "anonymous": false,
      "inputs": [
        {
          "indexed": true,
          "internalType": "address",
          "name": "owner",
          "type": "address"
        },
        {
          "indexed": true,
          "internalType": "address",
          "name": "approved",
          "type": "address"
        },
        {
          "indexed": true,
          "internalType": "uint256",
          "name": "tokenId",
          "type": "uint256"
        }
      ],
      "name": "Approval",
      "type": "event"
    },
    {
      "anonymous": false,
      "inputs": [
        {
          "indexed": true,
          "internalType": "address",
          "name": "owner",
          "type": "address"
        },
        {
          "indexed": true,
          "internalType": "address",
          "name": "operator",
          "type": "address"
        },
        {
          "indexed": false,
          "internalType": "bool",
          "name": "approved",
          "type": "bool"
        }
      ],
      "name": "ApprovalForAll",
      "type": "event"
    },
    {
      "anonymous": false,
      "inputs": [
        {
          "indexed": true,
          "internalType": "address",
          "name": "from",
          "type": "address"
        },
        {
          "indexed": true,
          "internalType": "address",
          "name": "to",
          "type": "address"
        },
        {
          "indexed": true,
          "internalType": "uint256",
          "name": "tokenId",
          "type": "uint256"
        }
      ],
      "name": "Transfer",
      "type": "event"
    },
    {
      "inputs": [
        {
          "internalType": "address",
          "name": "to",
          "type": "address"
        },
        {
          "internalType": "uint256",
          "name": "tokenId",
          "type": "uint256"
        }
      ],
      "name": "approve",
      "outputs": [],
      "stateMutability": "nonpayable",
      "type": "function"
    },
    {
      "inputs": [
        {
          "internalType": "address",
          "name": "owner",
          "type": "address"
        }
      ],
      "name": "balanceOf",
      "outputs": [
        {
          "internalType": "uint256",
          "name": "",
          "type": "uint256"
        }
      ],
      "stateMutability": "view",
      "type": "function"
    },
    {
      "inputs": [
        {
          "internalType": "uint256",
          "name": "tokenId",
          "type": "uint256"
        }
      ],
      "name": "getApproved",
      "outputs": [
        {
          "internalType": "address",
          "name": "",
          "type": "address"
        }
      ],
      "stateMutability": "view",
      "type": "function"
    },
    {
      "inputs": [
        {
          "internalType": "uint256",
          "name": "_id",
          "type": "uint256"
        }
      ],
      "name": "getOccasion",
      "outputs": [
        {
          "components": [
            {
              "internalType": "uint256",
              "name": "id",
              "type": "uint256"
            },
            {
              "internalType": "string",
              "name": "name",
              "type": "string"
            },
            {
              "internalType": "uint256",
              "name": "cost",
              "type": "uint256"
            },
            {
              "internalType": "uint256",
              "name": "tickets",
              "type": "uint256"
            },
            {
              "internalType": "uint256",
              "name": "maxTicket",
              "type": "uint256"
            },
            {
              "internalType": "string",
              "name": "date",
              "type": "string"
            },
            {
              "internalType": "string",
              "name": "time",
              "type": "string"
            },
            {
              "internalType": "string",
              "name": "location",
              "type": "string"
            }
          ],
          "internalType": "struct TokenMaster.Occasion",
          "name": "",
          "type": "tuple"
        }
      ],
      "stateMutability": "view",
      "type": "function"
    },
    {
      "inputs": [
        {
          "internalType": "uint256",
          "name": "_id",
          "type": "uint256"
        }
      ],
      "name": "getSeatTaken",
      "outputs": [
        {
          "internalType": "uint256[]",
          "name": "",
          "type": "uint256[]"
        }
      ],
      "stateMutability": "view",
      "type": "function"
    },
    {
      "inputs": [
        {
          "internalType": "uint256",
          "name": "",
          "type": "uint256"
        },
        {
          "internalType": "address",
          "name": "",
          "type": "address"
        }
      ],
      "name": "hasBought",
      "outputs": [
        {
          "internalType": "bool",
          "name": "",
          "type": "bool"
        }
      ],
      "stateMutability": "view",
      "type": "function"
    },
    {
      "inputs": [
        {
          "internalType": "address",
          "name": "owner",
          "type": "address"
        },
        {
          "internalType": "address",
          "name": "operator",
          "type": "address"
        }
      ],
      "name": "isApprovedForAll",
      "outputs": [
        {
          "internalType": "bool",
          "name": "",
          "type": "bool"
        }
      ],
      "stateMutability": "view",
      "type": "function"
    },
    {
      "inputs": [
        {
          "internalType": "string",
          "name": "_name",
          "type": "string"
        },
        {
          "internalType": "uint256",
          "name": "_cost",
          "type": "uint256"
        },
        {
          "internalType": "uint256",
          "name": "_maxTicket",
          "type": "uint256"
        },
        {
          "internalType": "string",
          "name": "_date",
          "type": "string"
        },
        {
          "internalType": "string",
          "name": "_time",
          "type": "string"
        },
        {
          "internalType": "string",
          "name": "_location",
          "type": "string"
        }
      ],
      "name": "list",
      "outputs": [],
      "stateMutability": "nonpayable",
      "type": "function"
    },
    {
      "inputs": [
        {
          "internalType": "uint256",
          "name": "_id",
          "type": "uint256"
        },
        {
          "internalType": "uint256",
          "name": "_seat",
          "type": "uint256"
        }
      ],
      "name": "mint",
      "outputs": [],
      "stateMutability": "payable",
      "type": "function"
    },
    {
      "inputs": [],
      "name": "name",
      "outputs": [
        {
          "internalType": "string",
          "name": "",
          "type": "string"
        }
      ],
      "stateMutability": "view",
      "type": "function"
    },
    {
      "inputs": [],
      "name": "owner",
      "outputs": [
        {
          "internalType": "address",
          "name": "",
          "type": "address"
        }
      ],
      "stateMutability": "view",
      "type": "function"
    },
    {
      "inputs": [
        {
          "internalType": "uint256",
          "name": "tokenId",
          "type": "uint256"
        }
      ],
      "name": "ownerOf",
      "outputs": [
        {
          "internalType": "address",
          "name": "",
          "type": "address"
        }
      ],
      "stateMutability": "view",
      "type": "function"
    },
    {
      "inputs": [
        {
          "internalType": "address",
          "name": "from",
          "type": "address"
        },
        {
          "internalType": "address",
          "name": "to",
          "type": "address"
        },
        {
          "internalType": "uint256",
          "name": "tokenId",
          "type": "uint256"
        }
      ],
      "name": "safeTransferFrom",
      "outputs": [],
      "stateMutability": "nonpayable",
      "type": "function"
    },
    {
      "inputs": [
        {
          "internalType": "address",
          "name": "from",
          "type": "address"
        },
        {
          "internalType": "address",
          "name": "to",
          "type": "address"
        },
        {
          "internalType": "uint256",
          "name": "tokenId",
          "type": "uint256"
        },
        {
          "internalType": "bytes",
          "name": "data",
          "type": "bytes"
        }
      ],
      "name": "safeTransferFrom",
      "outputs": [],
      "stateMutability": "nonpayable",
      "type": "function"
    },
    {
      "inputs": [
        {
          "internalType": "uint256",
          "name": "",
          "type": "uint256"
        },
        {
          "internalType": "uint256",
          "name": "",
          "type": "uint256"
        }
      ],
      "name": "seatTaken",
      "outputs": [
        {
          "internalType": "address",
          "name": "",
          "type": "address"
        }
      ],
      "stateMutability": "view",
      "type": "function"
    },
    {
      "inputs": [
        {
          "internalType": "address",
          "name": "operator",
          "type": "address"
        },
        {
          "internalType": "bool",
          "name": "approved",
          "type": "bool"
        }
      ],
      "name": "setApprovalForAll",
      "outputs": [],
      "stateMutability": "nonpayable",
      "type": "function"
    },
    {
      "inputs": [
        {
          "internalType": "bytes4",
          "name": "interfaceId",
          "type": "bytes4"
        }
      ],
      "name": "supportsInterface",
      "outputs": [
        {
          "internalType": "bool",
          "name": "",
          "type": "bool"
        }
      ],
      "stateMutability": "view",
      "type": "function"
    },
    {
      "inputs": [],
      "name": "symbol",
      "outputs": [
        {
          "internalType": "string",
          "name": "",
          "type": "string"
        }
      ],
      "stateMutability": "view",
      "type": "function"
    },
    {
      "inputs": [
        {
          "internalType": "uint256",
          "name": "tokenId",
          "type": "uint256"
        }
      ],
      "name": "tokenURI",
      "outputs": [
        {
          "internalType": "string",
          "name": "",
          "type": "string"
        }
      ],
      "stateMutability": "view",
      "type": "function"
    },
    {
      "inputs": [],
      "name": "totalOccasions",
      "outputs": [
        {
          "internalType": "uint256",
          "name": "",
          "type": "uint256"
        }
      ],
      "stateMutability": "view",
      "type": "function"
    },
    {
      "inputs": [],
      "name": "totalSupply",
      "outputs": [
        {
          "internalType": "uint256",
          "name": "",
          "type": "uint256"
        }
      ],
      "stateMutability": "view",
      "type": "function"
    },
    {
      "inputs": [
        {
          "internalType": "address",
          "name": "from",
          "type": "address"
        },
        {
          "internalType": "address",
          "name": "to",
          "type": "address"
        },
        {
          "internalType": "uint256",
          "name": "tokenId",
          "type": "uint256"
        }
      ],
      "name": "transferFrom",
      "outputs": [],
      "stateMutability": "nonpayable",
      "type": "function"
    },
    {
      "inputs": [],
      "name": "withdraw",
      "outputs": [],
      "stateMutability": "nonpayable",
      "type": "function"
    }
  ],
  "bytecode": "0x60806040523480156200001157600080fd5b5060405162003d7b38038062003d7b83398181016040528101906200003791906200023b565b818181600090816200004a91906200050b565b5080600190816200005c91906200050b565b50505033600660006101000a81548173ffffffffffffffffffffffffffffffffffffffff021916908373ffffffffffffffffffffffffffffffffffffffff1602179055505050620005f2565b6000604051905090565b600080fd5b600080fd5b600080fd5b600080fd5b6000601f19601f8301169050919050565b7f4e487b7100000000000000000000000000000000000000000000000000000000600052604160045260246000fd5b6200011182620000c6565b810181811067ffffffffffffffff82111715620001335762000132620000d7565b5b80604052505050565b600062000148620000a8565b905062000156828262000106565b919050565b600067ffffffffffffffff821115620001795762000178620000d7565b5b6200018482620000c6565b9050602081019050919050565b60005b83811015620001b157808201518184015260208101905062000194565b60008484015250505050565b6000620001d4620001ce846200015b565b6200013c565b905082815260208101848484011115620001f357620001f2620000c1565b5b6200020084828562000191565b509392505050565b600082601f83011262000220576200021f620000bc565b5b815162000232848260208601620001bd565b91505092915050565b60008060408385031215620002555762000254620000b2565b5b600083015167ffffffffffffffff811115620002765762000275620000b7565b5b620002848582860162000208565b925050602083015167ffffffffffffffff811115620002a857620002a7620000b7565b5b620002b68582860162000208565b9150509250929050565b600081519050919050565b7f4e487b7100000000000000000000000000000000000000000000000000000000600052602260045260246000fd5b600060028204905060018216806200031357607f821691505b602082108103620003295762000328620002cb565b5b50919050565b60008190508160005260206000209050919050565b60006020601f8301049050919050565b600082821b905092915050565b600060088302620003937fffffffffffffffffffffffffffffffffffffffffffffffffffffffffffffffff8262000354565b6200039f868362000354565b95508019841693508086168417925050509392505050565b6000819050919050565b6000819050919050565b6000620003ec620003e6620003e084620003b7565b620003c1565b620003b7565b9050919050565b6000819050919050565b6200040883620003cb565b620004206200041782620003f3565b84845462000361565b825550505050565b600090565b6200043762000428565b62000444818484620003fd565b505050565b5b818110156200046c57620004606000826200042d565b6001810190506200044a565b5050565b601f821115620004bb5762000485816200032f565b620004908462000344565b81016020851015620004a0578190505b620004b8620004af8562000344565b83018262000449565b50505b505050565b600082821c905092915050565b6000620004e060001984600802620004c0565b1980831691505092915050565b6000620004fb8383620004cd565b9150826002028217905092915050565b6200051682620002c0565b67ffffffffffffffff811115620005325762000531620000d7565b5b6200053e8254620002fa565b6200054b82828562000470565b600060209050601f8311600181146200058357600084156200056e578287015190505b6200057a8582620004ed565b865550620005ea565b601f19841662000593866200032f565b60005b82811015620005bd5784890151825560018201915060208501945060208101905062000596565b86831015620005dd5784890151620005d9601f891682620004cd565b8355505b6001600288020188555050505b505050505050565b61377980620006026000396000f3fe6080604052600436106101405760003560e01c806370a08231116100b65780639b5313991161006f5780639b53139914610461578063a22cb4651461049e578063af296da1146104c7578063b88d4fde14610504578063c87b56dd1461052d578063e985e9c51461056a57610140565b806370a082311461033d57806374bc86561461037a5780638da5cb5b146103b7578063953865c1146103e257806395d89b411461040d5780639a382f0f1461043857610140565b806318160ddd1161010857806318160ddd146102505780631b2ef1ca1461027b57806323b872dd146102975780633ccfd60b146102c057806342842e0e146102d75780636352211e1461030057610140565b806301ffc9a71461014557806306fdde031461018257806307546cae146101ad578063081812fc146101ea578063095ea7b314610227575b600080fd5b34801561015157600080fd5b5061016c600480360381019061016791906122e2565b6105a7565b604051610179919061232a565b60405180910390f35b34801561018e57600080fd5b50610197610689565b6040516101a491906123d5565b60405180910390f35b3480156101b957600080fd5b506101d460048036038101906101cf919061248b565b61071b565b6040516101e1919061232a565b60405180910390f35b3480156101f657600080fd5b50610211600480360381019061020c91906124cb565b61074a565b60405161021e9190612507565b60405180910390f35b34801561023357600080fd5b5061024e60048036038101906102499190612522565b610790565b005b34801561025c57600080fd5b506102656108a7565b6040516102729190612571565b60405180910390f35b6102956004803603810190610290919061258c565b6108ad565b005b3480156102a357600080fd5b506102be60048036038101906102b991906125cc565b610ae6565b005b3480156102cc57600080fd5b506102d5610b46565b005b3480156102e357600080fd5b506102fe60048036038101906102f991906125cc565b610c3b565b005b34801561030c57600080fd5b50610327600480360381019061032291906124cb565b610c5b565b6040516103349190612507565b60405180910390f35b34801561034957600080fd5b50610364600480360381019061035f919061261f565b610ce1565b6040516103719190612571565b60405180910390f35b34801561038657600080fd5b506103a1600480360381019061039c91906124cb565b610d98565b6040516103ae919061276a565b60405180910390f35b3480156103c357600080fd5b506103cc611036565b6040516103d99190612507565b60405180910390f35b3480156103ee57600080fd5b506103f761105c565b6040516104049190612571565b60405180910390f35b34801561041957600080fd5b50610422611062565b60405161042f91906123d5565b60405180910390f35b34801561044457600080fd5b5061045f600480360381019061045a91906128c1565b6110f4565b005b34801561046d57600080fd5b50610488600480360381019061048391906124cb565b611242565b6040516104959190612a6d565b60405180910390f35b3480156104aa57600080fd5b506104c560048036038101906104c09190612abb565b6112ad565b005b3480156104d357600080fd5b506104ee60048036038101906104e9919061258c565b6112c3565b6040516104fb9190612507565b60405180910390f35b34801561051057600080fd5b5061052b60048036038101906105269190612b9c565b611305565b005b34801561053957600080fd5b50610554600480360381019061054f91906124cb565b611367565b60405161056191906123d5565b60405180910390f35b34801561057657600080fd5b50610591600480360381019061058c9190612c1f565b6113cf565b60405161059e919061232a565b60405180910390f35b60007f80ac58cd000000000000000000000000000000000000000000000000000000007bffffffffffffffffffffffffffffffffffffffffffffffffffffffff1916827bffffffffffffffffffffffffffffffffffffffffffffffffffffffff1916148061067257507f5b5e139f000000000000000000000000000000000000000000000000000000007bffffffffffffffffffffffffffffffffffffffffffffffffffffffff1916827bffffffffffffffffffffffffffffffffffffffffffffffffffffffff1916145b80610682575061068182611463565b5b9050919050565b60606000805461069890612c8e565b80601f01602080910402602001604051908101604052809291908181526020018280546106c490612c8e565b80156107115780601f106106e657610100808354040283529160200191610711565b820191906000526020600020905b8154815290600101906020018083116106f457829003601f168201915b5050505050905090565b600a6020528160005260406000206020528060005260406000206000915091509054906101000a900460ff1681565b6000610755826114cd565b6004600083815260200190815260200160002060009054906101000a900473ffffffffffffffffffffffffffffffffffffffff169050919050565b600061079b82610c5b565b90508073ffffffffffffffffffffffffffffffffffffffff168373ffffffffffffffffffffffffffffffffffffffff160361080b576040517f08c379a000000000000000000000000000000000000000000000000000000000815260040161080290612d31565b60405180910390fd5b8073ffffffffffffffffffffffffffffffffffffffff1661082a611518565b73ffffffffffffffffffffffffffffffffffffffff161480610859575061085881610853611518565b6113cf565b5b610898576040517f08c379a000000000000000000000000000000000000000000000000000000000815260040161088f90612dc3565b60405180910390fd5b6108a28383611520565b505050565b60085481565b600082036108ba57600080fd5b6007548211156108c957600080fd5b600073ffffffffffffffffffffffffffffffffffffffff16600b6000848152602001908152602001600020600083815260200190815260200160002060009054906101000a900473ffffffffffffffffffffffffffffffffffffffff1673ffffffffffffffffffffffffffffffffffffffff161461094657600080fd5b600960008381526020019081526020016000206002015434101561096957600080fd5b600960008381526020019081526020016000206004015481111561098c57600080fd5b6009600083815260200190815260200160002060030160008154809291906109b390612e12565b91905055506001600a600084815260200190815260200160002060003373ffffffffffffffffffffffffffffffffffffffff1673ffffffffffffffffffffffffffffffffffffffff16815260200190815260200160002060006101000a81548160ff021916908315150217905550600c600083815260200190815260200160002081908060018154018082558091505060019003906000526020600020016000909190919091505533600b6000848152602001908152602001600020600083815260200190815260200160002060006101000a81548173ffffffffffffffffffffffffffffffffffffffff021916908373ffffffffffffffffffffffffffffffffffffffff16021790555060086000815480929190610ad190612e3b565b9190505550610ae2336008546115d9565b5050565b610af7610af1611518565b826115f7565b610b36576040517f08c379a0000000000000000000000000000000000000000000000000000000008152600401610b2d90612ef5565b60405180910390fd5b610b4183838361168c565b505050565b600660009054906101000a900473ffffffffffffffffffffffffffffffffffffffff1673ffffffffffffffffffffffffffffffffffffffff163373ffffffffffffffffffffffffffffffffffffffff1614610ba057600080fd5b6000600660009054906101000a900473ffffffffffffffffffffffffffffffffffffffff1673ffffffffffffffffffffffffffffffffffffffff1647604051610be890612f46565b60006040518083038185875af1925050503d8060008114610c25576040519150601f19603f3d011682016040523d82523d6000602084013e610c2a565b606091505b5050905080610c3857600080fd5b50565b610c5683838360405180602001604052806000815250611305565b505050565b600080610c6783611985565b9050600073ffffffffffffffffffffffffffffffffffffffff168173ffffffffffffffffffffffffffffffffffffffff1603610cd8576040517f08c379a0000000000000000000000000000000000000000000000000000000008152600401610ccf90612fa7565b60405180910390fd5b80915050919050565b60008073ffffffffffffffffffffffffffffffffffffffff168273ffffffffffffffffffffffffffffffffffffffff1603610d51576040517f08c379a0000000000000000000000000000000000000000000000000000000008152600401610d4890613039565b60405180910390fd5b600360008373ffffffffffffffffffffffffffffffffffffffff1673ffffffffffffffffffffffffffffffffffffffff168152602001908152602001600020549050919050565b610da0612231565b600960008381526020019081526020016000206040518061010001604052908160008201548152602001600182018054610dd990612c8e565b80601f0160208091040260200160405190810160405280929190818152602001828054610e0590612c8e565b8015610e525780601f10610e2757610100808354040283529160200191610e52565b820191906000526020600020905b815481529060010190602001808311610e3557829003601f168201915b50505050508152602001600282015481526020016003820154815260200160048201548152602001600582018054610e8990612c8e565b80601f0160208091040260200160405190810160405280929190818152602001828054610eb590612c8e565b8015610f025780601f10610ed757610100808354040283529160200191610f02565b820191906000526020600020905b815481529060010190602001808311610ee557829003601f168201915b50505050508152602001600682018054610f1b90612c8e565b80601f0160208091040260200160405190810160405280929190818152602001828054610f4790612c8e565b8015610f945780601f10610f6957610100808354040283529160200191610f94565b820191906000526020600020905b815481529060010190602001808311610f7757829003601f168201915b50505050508152602001600782018054610fad90612c8e565b80601f0160208091040260200160405190810160405280929190818152602001828054610fd990612c8e565b80156110265780601f10610ffb57610100808354040283529160200191611026565b820191906000526020600020905b81548152906001019060200180831161100957829003601f168201915b5050505050815250509050919050565b600660009054906101000a900473ffffffffffffffffffffffffffffffffffffffff1681565b60075481565b60606001805461107190612c8e565b80601f016020809104026020016040519081016040528092919081815260200182805461109d90612c8e565b80156110ea5780601f106110bf576101008083540402835291602001916110ea565b820191906000526020600020905b8154815290600101906020018083116110cd57829003601f168201915b5050505050905090565b600660009054906101000a900473ffffffffffffffffffffffffffffffffffffffff1673ffffffffffffffffffffffffffffffffffffffff163373ffffffffffffffffffffffffffffffffffffffff161461114e57600080fd5b6007600081548092919061116190612e3b565b91905055506040518061010001604052806007548152602001878152602001868152602001858152602001858152602001848152602001838152602001828152506009600060075481526020019081526020016000206000820151816000015560208201518160010190816111d69190613205565b5060408201518160020155606082015181600301556080820151816004015560a082015181600501908161120a9190613205565b5060c08201518160060190816112209190613205565b5060e08201518160070190816112369190613205565b50905050505050505050565b6060600c60008381526020019081526020016000208054806020026020016040519081016040528092919081815260200182805480156112a157602002820191906000526020600020905b81548152602001906001019080831161128d575b50505050509050919050565b6112bf6112b8611518565b83836119c2565b5050565b600b6020528160005260406000206020528060005260406000206000915091509054906101000a900473ffffffffffffffffffffffffffffffffffffffff1681565b611316611310611518565b836115f7565b611355576040517f08c379a000000000000000000000000000000000000000000000000000000000815260040161134c90612ef5565b60405180910390fd5b61136184848484611b2e565b50505050565b6060611372826114cd565b600061137c611b8a565b9050600081511161139c57604051806020016040528060008152506113c7565b806113a684611ba1565b6040516020016113b7929190613313565b6040516020818303038152906040525b915050919050565b6000600560008473ffffffffffffffffffffffffffffffffffffffff1673ffffffffffffffffffffffffffffffffffffffff16815260200190815260200160002060008373ffffffffffffffffffffffffffffffffffffffff1673ffffffffffffffffffffffffffffffffffffffff16815260200190815260200160002060009054906101000a900460ff16905092915050565b60007f01ffc9a7000000000000000000000000000000000000000000000000000000007bffffffffffffffffffffffffffffffffffffffffffffffffffffffff1916827bffffffffffffffffffffffffffffffffffffffffffffffffffffffff1916149050919050565b6114d681611c6f565b611515576040517f08c379a000000000000000000000000000000000000000000000000000000000815260040161150c90612fa7565b60405180910390fd5b50565b600033905090565b816004600083815260200190815260200160002060006101000a81548173ffffffffffffffffffffffffffffffffffffffff021916908373ffffffffffffffffffffffffffffffffffffffff160217905550808273ffffffffffffffffffffffffffffffffffffffff1661159383610c5b565b73ffffffffffffffffffffffffffffffffffffffff167f8c5be1e5ebec7d5bd14f71427d1e84f3dd0314c0f7b2291e5b200ac8c7c3b92560405160405180910390a45050565b6115f3828260405180602001604052806000815250611cb0565b5050565b60008061160383610c5b565b90508073ffffffffffffffffffffffffffffffffffffffff168473ffffffffffffffffffffffffffffffffffffffff161480611645575061164481856113cf565b5b8061168357508373ffffffffffffffffffffffffffffffffffffffff1661166b8461074a565b73ffffffffffffffffffffffffffffffffffffffff16145b91505092915050565b8273ffffffffffffffffffffffffffffffffffffffff166116ac82610c5b565b73ffffffffffffffffffffffffffffffffffffffff1614611702576040517f08c379a00000000000000000000000000000000000000000000000000000000081526004016116f9906133a9565b60405180910390fd5b600073ffffffffffffffffffffffffffffffffffffffff168273ffffffffffffffffffffffffffffffffffffffff1603611771576040517f08c379a00000000000000000000000000000000000000000000000000000000081526004016117689061343b565b60405180910390fd5b61177e8383836001611d0b565b8273ffffffffffffffffffffffffffffffffffffffff1661179e82610c5b565b73ffffffffffffffffffffffffffffffffffffffff16146117f4576040517f08c379a00000000000000000000000000000000000000000000000000000000081526004016117eb906133a9565b60405180910390fd5b6004600082815260200190815260200160002060006101000a81549073ffffffffffffffffffffffffffffffffffffffff02191690556001600360008573ffffffffffffffffffffffffffffffffffffffff1673ffffffffffffffffffffffffffffffffffffffff168152602001908152602001600020600082825403925050819055506001600360008473ffffffffffffffffffffffffffffffffffffffff1673ffffffffffffffffffffffffffffffffffffffff16815260200190815260200160002060008282540192505081905550816002600083815260200190815260200160002060006101000a81548173ffffffffffffffffffffffffffffffffffffffff021916908373ffffffffffffffffffffffffffffffffffffffff160217905550808273ffffffffffffffffffffffffffffffffffffffff168473ffffffffffffffffffffffffffffffffffffffff167fddf252ad1be2c89b69c2b068fc378daa952ba7f163c4a11628f55a4df523b3ef60405160405180910390a46119808383836001611d11565b505050565b60006002600083815260200190815260200160002060009054906101000a900473ffffffffffffffffffffffffffffffffffffffff169050919050565b8173ffffffffffffffffffffffffffffffffffffffff168373ffffffffffffffffffffffffffffffffffffffff1603611a30576040517f08c379a0000000000000000000000000000000000000000000000000000000008152600401611a27906134a7565b60405180910390fd5b80600560008573ffffffffffffffffffffffffffffffffffffffff1673ffffffffffffffffffffffffffffffffffffffff16815260200190815260200160002060008473ffffffffffffffffffffffffffffffffffffffff1673ffffffffffffffffffffffffffffffffffffffff16815260200190815260200160002060006101000a81548160ff0219169083151502179055508173ffffffffffffffffffffffffffffffffffffffff168373ffffffffffffffffffffffffffffffffffffffff167f17307eab39ab6107e8899845ad3d59bd9653f200f220920489ca2b5937696c3183604051611b21919061232a565b60405180910390a3505050565b611b3984848461168c565b611b4584848484611d17565b611b84576040517f08c379a0000000000000000000000000000000000000000000000000000000008152600401611b7b90613539565b60405180910390fd5b50505050565b606060405180602001604052806000815250905090565b606060006001611bb084611e9e565b01905060008167ffffffffffffffff811115611bcf57611bce612796565b5b6040519080825280601f01601f191660200182016040528015611c015781602001600182028036833780820191505090505b509050600082602001820190505b600115611c64578080600190039150507f3031323334353637383961626364656600000000000000000000000000000000600a86061a8153600a8581611c5857611c57613559565b5b04945060008503611c0f575b819350505050919050565b60008073ffffffffffffffffffffffffffffffffffffffff16611c9183611985565b73ffffffffffffffffffffffffffffffffffffffff1614159050919050565b611cba8383611ff1565b611cc76000848484611d17565b611d06576040517f08c379a0000000000000000000000000000000000000000000000000000000008152600401611cfd90613539565b60405180910390fd5b505050565b50505050565b50505050565b6000611d388473ffffffffffffffffffffffffffffffffffffffff1661220e565b15611e91578373ffffffffffffffffffffffffffffffffffffffff1663150b7a02611d61611518565b8786866040518563ffffffff1660e01b8152600401611d8394939291906135dd565b6020604051808303816000875af1925050508015611dbf57506040513d601f19601f82011682018060405250810190611dbc919061363e565b60015b611e41573d8060008114611def576040519150601f19603f3d011682016040523d82523d6000602084013e611df4565b606091505b506000815103611e39576040517f08c379a0000000000000000000000000000000000000000000000000000000008152600401611e3090613539565b60405180910390fd5b805181602001fd5b63150b7a0260e01b7bffffffffffffffffffffffffffffffffffffffffffffffffffffffff1916817bffffffffffffffffffffffffffffffffffffffffffffffffffffffff191614915050611e96565b600190505b949350505050565b600080600090507a184f03e93ff9f4daa797ed6e38ed64bf6a1f0100000000000000008310611efc577a184f03e93ff9f4daa797ed6e38ed64bf6a1f0100000000000000008381611ef257611ef1613559565b5b0492506040810190505b6d04ee2d6d415b85acef81000000008310611f39576d04ee2d6d415b85acef81000000008381611f2f57611f2e613559565b5b0492506020810190505b662386f26fc100008310611f6857662386f26fc100008381611f5e57611f5d613559565b5b0492506010810190505b6305f5e1008310611f91576305f5e1008381611f8757611f86613559565b5b0492506008810190505b6127108310611fb6576127108381611fac57611fab613559565b5b0492506004810190505b60648310611fd95760648381611fcf57611fce613559565b5b0492506002810190505b600a8310611fe8576001810190505b80915050919050565b600073ffffffffffffffffffffffffffffffffffffffff168273ffffffffffffffffffffffffffffffffffffffff1603612060576040517f08c379a0000000000000000000000000000000000000000000000000000000008152600401612057906136b7565b60405180910390fd5b61206981611c6f565b156120a9576040517f08c379a00000000000000000000000000000000000000000000000000000000081526004016120a090613723565b60405180910390fd5b6120b7600083836001611d0b565b6120c081611c6f565b15612100576040517f08c379a00000000000000000000000000000000000000000000000000000000081526004016120f790613723565b60405180910390fd5b6001600360008473ffffffffffffffffffffffffffffffffffffffff1673ffffffffffffffffffffffffffffffffffffffff16815260200190815260200160002060008282540192505081905550816002600083815260200190815260200160002060006101000a81548173ffffffffffffffffffffffffffffffffffffffff021916908373ffffffffffffffffffffffffffffffffffffffff160217905550808273ffffffffffffffffffffffffffffffffffffffff16600073ffffffffffffffffffffffffffffffffffffffff167fddf252ad1be2c89b69c2b068fc378daa952ba7f163c4a11628f55a4df523b3ef60405160405180910390a461220a600083836001611d11565b5050565b6000808273ffffffffffffffffffffffffffffffffffffffff163b119050919050565b60405180610100016040528060008152602001606081526020016000815260200160008152602001600081526020016060815260200160608152602001606081525090565b6000604051905090565b600080fd5b600080fd5b60007fffffffff0000000000000000000000000000000000000000000000000000000082169050919050565b6122bf8161228a565b81146122ca57600080fd5b50565b6000813590506122dc816122b6565b92915050565b6000602082840312156122f8576122f7612280565b5b6000612306848285016122cd565b91505092915050565b60008115159050919050565b6123248161230f565b82525050565b600060208201905061233f600083018461231b565b92915050565b600081519050919050565b600082825260208201905092915050565b60005b8381101561237f578082015181840152602081019050612364565b60008484015250505050565b6000601f19601f8301169050919050565b60006123a782612345565b6123b18185612350565b93506123c1818560208601612361565b6123ca8161238b565b840191505092915050565b600060208201905081810360008301526123ef818461239c565b905092915050565b6000819050919050565b61240a816123f7565b811461241557600080fd5b50565b60008135905061242781612401565b92915050565b600073ffffffffffffffffffffffffffffffffffffffff82169050919050565b60006124588261242d565b9050919050565b6124688161244d565b811461247357600080fd5b50565b6000813590506124858161245f565b92915050565b600080604083850312156124a2576124a1612280565b5b60006124b085828601612418565b92505060206124c185828601612476565b9150509250929050565b6000602082840312156124e1576124e0612280565b5b60006124ef84828501612418565b91505092915050565b6125018161244d565b82525050565b600060208201905061251c60008301846124f8565b92915050565b6000806040838503121561253957612538612280565b5b600061254785828601612476565b925050602061255885828601612418565b9150509250929050565b61256b816123f7565b82525050565b60006020820190506125866000830184612562565b92915050565b600080604083850312156125a3576125a2612280565b5b60006125b185828601612418565b92505060206125c285828601612418565b9150509250929050565b6000806000606084860312156125e5576125e4612280565b5b60006125f386828701612476565b935050602061260486828701612476565b925050604061261586828701612418565b9150509250925092565b60006020828403121561263557612634612280565b5b600061264384828501612476565b91505092915050565b612655816123f7565b82525050565b600082825260208201905092915050565b600061267782612345565b612681818561265b565b9350612691818560208601612361565b61269a8161238b565b840191505092915050565b6000610100830160008301516126be600086018261264c565b50602083015184820360208601526126d6828261266c565b91505060408301516126eb604086018261264c565b5060608301516126fe606086018261264c565b506080830151612711608086018261264c565b5060a083015184820360a0860152612729828261266c565b91505060c083015184820360c0860152612743828261266c565b91505060e083015184820360e086015261275d828261266c565b9150508091505092915050565b6000602082019050818103600083015261278481846126a5565b905092915050565b600080fd5b600080fd5b7f4e487b7100000000000000000000000000000000000000000000000000000000600052604160045260246000fd5b6127ce8261238b565b810181811067ffffffffffffffff821117156127ed576127ec612796565b5b80604052505050565b6000612800612276565b905061280c82826127c5565b919050565b600067ffffffffffffffff82111561282c5761282b612796565b5b6128358261238b565b9050602081019050919050565b82818337600083830152505050565b600061286461285f84612811565b6127f6565b9050828152602081018484840111156128805761287f612791565b5b61288b848285612842565b509392505050565b600082601f8301126128a8576128a761278c565b5b81356128b8848260208601612851565b91505092915050565b60008060008060008060c087890312156128de576128dd612280565b5b600087013567ffffffffffffffff8111156128fc576128fb612285565b5b61290889828a01612893565b965050602061291989828a01612418565b955050604061292a89828a01612418565b945050606087013567ffffffffffffffff81111561294b5761294a612285565b5b61295789828a01612893565b935050608087013567ffffffffffffffff81111561297857612977612285565b5b61298489828a01612893565b92505060a087013567ffffffffffffffff8111156129a5576129a4612285565b5b6129b189828a01612893565b9150509295509295509295565b600081519050919050565b600082825260208201905092915050565b6000819050602082019050919050565b60006129f6838361264c565b60208301905092915050565b6000602082019050919050565b6000612a1a826129be565b612a2481856129c9565b9350612a2f836129da565b8060005b83811015612a60578151612a4788826129ea565b9750612a5283612a02565b925050600181019050612a33565b5085935050505092915050565b60006020820190508181036000830152612a878184612a0f565b905092915050565b612a988161230f565b8114612aa357600080fd5b50565b600081359050612ab581612a8f565b92915050565b60008060408385031215612ad257612ad1612280565b5b6000612ae085828601612476565b9250506020612af185828601612aa6565b9150509250929050565b600067ffffffffffffffff821115612b1657612b15612796565b5b612b1f8261238b565b9050602081019050919050565b6000612b3f612b3a84612afb565b6127f6565b905082815260208101848484011115612b5b57612b5a612791565b5b612b66848285612842565b509392505050565b600082601f830112612b8357612b8261278c565b5b8135612b93848260208601612b2c565b91505092915050565b60008060008060808587031215612bb657612bb5612280565b5b6000612bc487828801612476565b9450506020612bd587828801612476565b9350506040612be687828801612418565b925050606085013567ffffffffffffffff811115612c0757612c06612285565b5b612c1387828801612b6e565b91505092959194509250565b60008060408385031215612c3657612c35612280565b5b6000612c4485828601612476565b9250506020612c5585828601612476565b9150509250929050565b7f4e487b7100000000000000000000000000000000000000000000000000000000600052602260045260246000fd5b60006002820490506001821680612ca657607f821691505b602082108103612cb957612cb8612c5f565b5b50919050565b7f4552433732313a20617070726f76616c20746f2063757272656e74206f776e6560008201527f7200000000000000000000000000000000000000000000000000000000000000602082015250565b6000612d1b602183612350565b9150612d2682612cbf565b604082019050919050565b60006020820190508181036000830152612d4a81612d0e565b9050919050565b7f4552433732313a20617070726f76652063616c6c6572206973206e6f7420746f60008201527f6b656e206f776e6572206f7220617070726f76656420666f7220616c6c000000602082015250565b6000612dad603d83612350565b9150612db882612d51565b604082019050919050565b60006020820190508181036000830152612ddc81612da0565b9050919050565b7f4e487b7100000000000000000000000000000000000000000000000000000000600052601160045260246000fd5b6000612e1d826123f7565b915060008203612e3057612e2f612de3565b5b600182039050919050565b6000612e46826123f7565b91507fffffffffffffffffffffffffffffffffffffffffffffffffffffffffffffffff8203612e7857612e77612de3565b5b600182019050919050565b7f4552433732313a2063616c6c6572206973206e6f7420746f6b656e206f776e6560008201527f72206f7220617070726f76656400000000000000000000000000000000000000602082015250565b6000612edf602d83612350565b9150612eea82612e83565b604082019050919050565b60006020820190508181036000830152612f0e81612ed2565b9050919050565b600081905092915050565b50565b6000612f30600083612f15565b9150612f3b82612f20565b600082019050919050565b6000612f5182612f23565b9150819050919050565b7f4552433732313a20696e76616c696420746f6b656e2049440000000000000000600082015250565b6000612f91601883612350565b9150612f9c82612f5b565b602082019050919050565b60006020820190508181036000830152612fc081612f84565b9050919050565b7f4552433732313a2061646472657373207a65726f206973206e6f74206120766160008201527f6c6964206f776e65720000000000000000000000000000000000000000000000602082015250565b6000613023602983612350565b915061302e82612fc7565b604082019050919050565b6000602082019050818103600083015261305281613016565b9050919050565b60008190508160005260206000209050919050565b60006020601f8301049050919050565b600082821b905092915050565b6000600883026130bb7fffffffffffffffffffffffffffffffffffffffffffffffffffffffffffffffff8261307e565b6130c5868361307e565b95508019841693508086168417925050509392505050565b6000819050919050565b60006131026130fd6130f8846123f7565b6130dd565b6123f7565b9050919050565b6000819050919050565b61311c836130e7565b61313061312882613109565b84845461308b565b825550505050565b600090565b613145613138565b613150818484613113565b505050565b5b818110156131745761316960008261313d565b600181019050613156565b5050565b601f8211156131b95761318a81613059565b6131938461306e565b810160208510156131a2578190505b6131b66131ae8561306e565b830182613155565b50505b505050565b600082821c905092915050565b60006131dc600019846008026131be565b1980831691505092915050565b60006131f583836131cb565b9150826002028217905092915050565b61320e82612345565b67ffffffffffffffff81111561322757613226612796565b5b6132318254612c8e565b61323c828285613178565b600060209050601f83116001811461326f576000841561325d578287015190505b61326785826131e9565b8655506132cf565b601f19841661327d86613059565b60005b828110156132a557848901518255600182019150602085019450602081019050613280565b868310156132c257848901516132be601f8916826131cb565b8355505b6001600288020188555050505b505050505050565b600081905092915050565b60006132ed82612345565b6132f781856132d7565b9350613307818560208601612361565b80840191505092915050565b600061331f82856132e2565b915061332b82846132e2565b91508190509392505050565b7f4552433732313a207472616e736665722066726f6d20696e636f72726563742060008201527f6f776e6572000000000000000000000000000000000000000000000000000000602082015250565b6000613393602583612350565b915061339e82613337565b604082019050919050565b600060208201905081810360008301526133c281613386565b9050919050565b7f4552433732313a207472616e7366657220746f20746865207a65726f2061646460008201527f7265737300000000000000000000000000000000000000000000000000000000602082015250565b6000613425602483612350565b9150613430826133c9565b604082019050919050565b6000602082019050818103600083015261345481613418565b9050919050565b7f4552433732313a20617070726f766520746f2063616c6c657200000000000000600082015250565b6000613491601983612350565b915061349c8261345b565b602082019050919050565b600060208201905081810360008301526134c081613484565b9050919050565b7f4552433732313a207472616e7366657220746f206e6f6e20455243373231526560008201527f63656976657220696d706c656d656e7465720000000000000000000000000000602082015250565b6000613523603283612350565b915061352e826134c7565b604082019050919050565b6000602082019050818103600083015261355281613516565b9050919050565b7f4e487b7100000000000000000000000000000000000000000000000000000000600052601260045260246000fd5b600081519050919050565b600082825260208201905092915050565b60006135af82613588565b6135b98185613593565b93506135c9818560208601612361565b6135d28161238b565b840191505092915050565b60006080820190506135f260008301876124f8565b6135ff60208301866124f8565b61360c6040830185612562565b818103606083015261361e81846135a4565b905095945050505050565b600081519050613638816122b6565b92915050565b60006020828403121561365457613653612280565b5b600061366284828501613629565b91505092915050565b7f4552433732313a206d696e7420746f20746865207a65726f2061646472657373600082015250565b60006136a1602083612350565b91506136ac8261366b565b602082019050919050565b600060208201905081810360008301526136d081613694565b9050919050565b7f4552433732313a20746f6b656e20616c7265616479206d696e74656400000000600082015250565b600061370d601c83612350565b9150613718826136d7565b602082019050919050565b6000602082019050818103600083015261373c81613700565b905091905056fea2646970667358221220b12494d3a6b093bd9b701b818ecb78ba36e83a95b031f505eacd14810911a67664736f6c63430008110033",
  "linkReferences": {},
  "deployedLinkReferences": {}
}